S013000031315F5741544348444F472E73726563FF
S11300000C9434000C943E000C943E000C943E007E
S11300100C943E000C943E000C943E000C943E0064
S11300200C943E000C943E000C943E000C943E0054
S11300300C943E000C943E000C943E000C943E0044
S11300400C943E000C943E000C943E000C943E0034
S11300500C943E000C943E000C943E000C943E0024
S11300600C943E000C943E0011241FBECFEFD8E048
S1130070DEBFCDBF0E9440000C944C000C940000E5
S113008098E088E10FB6F894A895809360000FBEBD
S10F009090936000A895FECFF894FFCF79
S9030000FC
