:100000000C9434000C9449000C9449000C94490061
:100010000C9449000C9449000C9449000C9449003C
:100020000C9449000C9449000C9449000C9449002C
:100030000C9449000C9449000C9449000C9449001C
:100040000C9449000C9449000C9449000C9449000C
:100050000C9449000C9449000C9449000C944900FC
:100060000C9449000C94490011241FBECFEFD8E036
:10007000DEBFCDBF11E0A0E0B1E0E8E0F1E002C0FA
:1000800005900D92AE30B107D9F70E946A000C942A
:1000900082000C940000E0ECF0E0908195FFFDCF31
:1000A0008093C6000895E0ECF0E080818823ECF7AF
:1000B0008091C6000895CF93DF93EC018881882357
:1000C00031F021960E944B0089918111FBCFDF9185
:1000D000CF910895E1ECF0E0808188618083E2ECCB
:1000E000F0E08081866080831092C50087E680936F
:1000F000C40080E091E00E945B000E9453000E94D7
:080100004B00FBCFF894FFCF88
:0E01080048616C6C6F2050757474790A0D009C
:00000001FF
