:100000000C9434000C9456000C9446000C9446005A
:100010000C9446000C9446000C9446000C94460048
:100020000C9446000C9446000C9446000C94460038
:100030000C9446000C9446000C9448000C94460026
:100040000C9446000C9446000C9446000C94460018
:100050000C9446000C9446000C9446000C94460008
:100060000C9446000C94460011241FBECFEFD8E03C
:10007000DEBFCDBF21E0A0E0B1E001C01D92A23003
:10008000B207E1F70E9474000C9489000C94000000
:100090001F920F920FB60F9211241092010110922D
:1000A00000010F900FBE0F901F9018951F920F9296
:1000B0000FB60F9211248F939F938091000190911E
:1000C0000101892B51F481E090E09093010180932C
:1000D000000116BC85B1809585B99F918F910F90D5
:1000E0000FBE0F901F9018958FEF84B985B9529865
:1000F0005A9AEEE6F0E080818260808385B5856063
:1001000085BDE9E6F0E0808183608083E89A789499
:06011000FFCFF894FFCFC1
:00000001FF
