S01600004C6175666C6963687431304269742E73726563F2
S11300000C9434000C9446000C9446000C94460066
S11300100C9446000C9446000C9446000C94460044
S11300200C9446000C9446000C9446000C94460034
S11300300C9446000C9446000C9446000C94460024
S11300400C9446000C9446000C9446000C94460014
S11300500C9446000C9446000C9446000C94460004
S11300600C9446000C94460011241FBECFEFD8E038
S1130070DEBFCDBF21E0A0E0B1E001C01D92A230FF
S1130080B207E1F70E9448000C949F000C94000012
S11300908FE384B98CE38AB983E08BB981E08093E0
S11300A00101109200017BEA41E050E08BB1837CB6
S11300B08BB985B1807C85B990E020910101809154
S11300C00001929F800D11248A3000F5863050F48F
S11300D065B19A0102C0220F331F8A95E2F7262BDD
S11300E025B914C06BB1879F212D1124269526951F
S11300F0322F330F230F220F821B8E5F9A0102C00F
S1130100220F331F8A95E2F7262B2BB99F5F92307B
S1130110A1F69091010180910001890F8093000163
S11301208A3018F09195909301012FEF80E792E0C7
S1130130215080409040E1F700C00000B7CFF89410
S1050140FFCFEB
S9030000FC
