S0140000546167335F4144435F50574D2E7372656347
S11300000C9434000C943E000C943E000C943E007E
S11300100C943E000C943E000C943E000C943E0064
S11300200C943E000C943E000C943E000C943E0054
S11300300C943E000C943E000C943E000C943E0044
S11300400C943E000C943E000C943E000C943E0034
S11300500C943E000C9440000C943E000C943E0022
S11300600C943E000C943E0011241FBECFEFD8E048
S1130070DEBFCDBF0E944F000C9479000C940000A9
S11300801F920F920FB60F9211248F9380917900D3
S113009087BD8F910F900FBE0F901F901895ECE7BE
S11300A0F0E010828081806480838081806280831C
S11300B0EAE7F0E0808187608083808180628083CA
S11300C010927B0080818068808380818860808337
S11300D08081806480837894569A80E487BD84B557
S11300E0806884BD84B5836084BD85B5826085BD28
S10900F0FFCFF894FFCFDE
S9030000FC
